:020000040800F2
:1000000000040020A1020008F5100008F910000803
:100010004D110008F910000821110008A302000882
:10002000A3020008A3020008A30200082D2900086B
:10003000A3020008A3020008A3020008A30200080C
:10004000A3020008A3020008A3020008A3020008FC
:10005000A3020008A30200085D3E0008893E0008D4
:10006000B53E0008E13E00080D3F0008A30200086D
:10007000A3020008A3020008A3020008A3020008CC
:10008000A3020008A3020008A3020008A3020008BC
:10009000A3020008A3020008A3020008393F0008D9
:1000A000A3020008A3020008A3020008A30200089C
:1000B000A3020008A3020008A3020008A30200088C
:1000C000A3020008A3020008A3020008A30200087C
:1000D000A3020008A3020008B5110008A30200084B
:1000E000A13F0008A3020008A3020008A302000821
:1000F000A3020008A3020008A3020008A30200084C
:10010000A3020008A3020008D93A0008A3020008CD
:10011000A3020008A3020008A3020008A30200082B
:10012000A3020008A3020008A3020008A30200081B
:10013000A3020008A3020008A3020008A30200080B
:10014000A3020008A3020008A3020008A3020008FB
:10015000A3020008A3020008A3020008A3020008EB
:10016000A3020008A3020008A3020008A3020008DB
:10017000A302000855340008A3020008A3020008E7
:10018000A3020008A3020008A3020008A3020008BB
:10019000A3020008A3020008A3020008A3020008AB
:1001A000A3020008A3020008A3020008A30200089B
:1001B000A3020008A3020008A3020008A30200088B
:1001C000A3020008A3020008A3020008A30200087B
:1001D000A302000841340008A3020008A30200089B
:1001E000A3020008A3020008A3020008A30200085B
:1001F000A3020008A3020008A3020008A30200084B
:10020000A3020008A3020008A3020008A30200083A
:10021000A3020008A3020008A3020008A30200082A
:10022000A3020008A3020008A3020008A30200081A
:10023000A3020008A3020008A3020008A30200080A
:10024000A3020008A3020008A3020008A3020008FA
:10025000A3020008A3020008A3020008A3020008EA
:10026000A3020008A3020008A3020008A3020008DA
:10027000A3020008A3020008A3020008A3020008CA
:10028000A3020008A3020008A3020008A3020008BA
:10029000A3020008A3020008A3020008A3020008AA
:1002A00002E000F000F8FEE772B6394880F30888F3
:1002B000384880F3098838484EF60851CEF20001DC
:1002C000086040F20000CCF200004EF63471CEF22D
:1002D00000010860BFF34F8FBFF36F8F40F2000043
:1002E000C0F2F0004EF68851CEF200010860BFF374
:1002F0004F8FBFF36F8F4FF00000E1EE100A4EF604
:100300003C71CEF200010860062080F31488BFF330
:100310006F8F02F049FB03F05DFB4FF055301F4932
:100320001B4A91423CBF41F8040BFAE71C49194AA9
:1003300091423CBF41F8040BFAE71A491A4A1B4B99
:100340009A423EBF51F8040B42F8040BF8E7002034
:100350001749184A91423CBF41F8040BFAE702F0F2
:1003600067FB03F0ABFB144C144DAC4203DA54F8BA
:10037000041B8847F9E700F03FF8114C114DAC42DF
:1003800003DA54F8041B8847F9E702F04FBB00007A
:1003900000040020002400200000000800000020CD
:1003A0000004002008440008002400204424002009
:1003B0004824002060390020A0020008A0020008A4
:1003C000A0020008A00200082DE9F04F2DED108AD0
:1003D000C1F80CD0D0F80CD0BDEC108ABDE8F08F7D
:1003E000002383F311882846A047002001F0FAFE7D
:1003F00001F0BEFE00DFFEE738B51F4C0F230025DD
:1004000023700423A57063701E23E5702571657148
:10041000A571E57125726572A372E57200F07AFD2F
:1004200020B10E2325726572A372E57202F040FAC4
:10043000054602F075FA0446D0B9104B9D4219D01A
:1004400001339D420DBF00254FF4FA750446012487
:10045000002002F037FA0CB100F0B4F800F0F0FD23
:1004600000F0B0FC284600F06BF900F0ABF8F9E7BB
:100470000025EDE70546EBE748240020010007B022
:1004800008B500F009FCA0F120035842584108BD0E
:10049000054B07B51B88022101A8ADF8043000F018
:1004A0007BFC03B05DF804FBA8400008064991F806
:1004B000243033B100230822086A81F8243000F088
:1004C000A5BC0120704700BF682400202DE9F84F2B
:1004D000224C16460746884694F8242082BBDFF853
:1004E0007C90002E38D094F824A0BAF1000F05D1EA
:1004F0002022FF214846276200F090FDCAF108053E
:10050000414604EB8A00B54228BF35465FFA85FBB9
:10051000AD00A6EB0B062A462F4400F057FD94F8D9
:100520002430A844F6B29B445FFA8BFBBBF1080F62
:1005300084F824B0D5D1FFF7B9FF0028D1D108E065
:10054000236A03EB82038342C9D0FFF7AFFF002881
:10055000C5D10020BDE8F88F0120FBE7682400200A
:1005600010B5202383F311881248C3680BB101F042
:10057000BFFE0023104A4FF47A710E4801F07CFE52
:10058000002383F311880D4C236813B12368013BCA
:100590002360636813B16368013B6360084B1B7899
:1005A00033B9636823B9022000F0FCFC3223636096
:1005B00010BD00BF542400206105000898290020C8
:1005C00090240020554B564A2DE9F041196801311D
:1005D00000F0A18004339342F8D1524C524B226870
:1005E0009A4240F29880514B9B6803F1006303F5F7
:1005F00000339A4280F08F80002000F0FFFB022041
:100600004B4B187000F0BEFC4A4BD3F8E820002298
:10061000C3F8E820D3F81011C3F81021D3F8101153
:10062000D3F8EC10C3F8EC20D3F81411C3F814215C
:10063000D3F81411D3F8F010C3F8F020D3F8181140
:10064000C3F81821D3F81811D3F8801041F00061D5
:10065000C3F88010D3F8801021F00061C3F8801037
:10066000D3F88010D3F8801041F00071C3F88010E7
:10067000D3F8801021F00071C3F88010D3F88030D7
:1006800072B6264B2C490B601D682468BFF34F8F50
:10069000BFF36F8F294BC3F88420BFF34F8F5A6984
:1006A00022F480325A61BFF34F8FD3F8802043F693
:1006B000E07CC2F3C906C2F34E32B707520102EA28
:1006C0000C0838463146013948EA000E00F1404036
:1006D000B1F1FF3FC3F874E2F5D1203A12F1200FD7
:1006E000EDD1BFF34F8FBFF36F8FBFF34F8FBFF3CA
:1006F0006F8F5A6922F400325A610022C3F85022E7
:10070000BFF34F8FBFF36F8F202383F31188AD4664
:1007100085F308882047BDE8F08100BF000002088B
:100720002000020804000208FFFF010848240020FE
:10073000902400200044025808ED00E000ED00E0A5
:100740002DE9F04F97B0B24C2022FF2100900EA867
:10075000A66800F063FCAF4AA2461378A3B9012152
:10076000AD481170C360202383F31188C3680BB1B7
:1007700001F0BEFD0023A94A4FF47A71A64801F0AA
:100780007BFD002383F31188009BA54A03B113600E
:100790000023A449009F99461D461C4698460B70AD
:1007A0005360DFF87CB2012000F0ECFB27B1DBF8EE
:1007B0000030002B00F03882002000F06DFA02902B
:1007C000029B002BF2DB012000F0CAFB029B213BC5
:1007D000122BE8D801A252F823F000BF2908000824
:1007E00051080008C1080008A7070008A70700086B
:1007F000A707000853090008950B00083D0A0008E8
:10080000F50A0008270B0008550B0008A707000889
:100810006D0B0008A7070008E70B00084109000856
:10082000A70700082F0C00080220FFF729FE002868
:1008300040F02582009BB9F1000F08BF1F467A4B9C
:100840001B88022109A8ADF8243000F0A5FAA8E71A
:100850004FF47A7000F020FA031E0193EADB0220C5
:10086000FFF70EFE83460028E4D0019B581E0428A3
:1008700000F20782DFE800F0030E1114170016A83B
:100880000523042140F8343D00F086FA5D464FF020
:10089000000855E004215E48F6E704216348F3E7C9
:1008A00004216348F0E71C252846043500F0A8FA27
:1008B0000421099009A800F06FFA2C2DF4D1E5E786
:1008C000002CB7D0002DB5D00220FFF7D9FD04468B
:1008D000002800F0D9810120524D00F08FFA4FF02E
:1008E00000090220287000F04DFB5FFA89FB584692
:1008F00000F094FA074658B1584609F1010900F092
:100900009DFA0028F1D12546A1460027494B97E7DB
:1009100001233E4602202B7000F022FBDAF808305B
:10092000B34206D9304600F06BFA0130EBD1043601
:10093000F4E700263A4BA1462E70374625465E6006
:1009400000F074FB14B1002D18BF0027FFF7A0FDC5
:1009500027E7002C3FF46EAF002D3FF46BAF022071
:10096000304B187000F00EFB322000F095F9B0F11A
:10097000000BC0F289811BF0030440F085810BEB72
:100980000603DAF80820934200F27E81BBF5807FEF
:1009900000F27A81284BA34501930DDD4FF47A7064
:1009A00000F07AF90290029A002AC0F26D81029A50
:1009B000019BE2540134EEE7C820FFF761FD0446D5
:1009C000002800F061811F2E11D8C6F120050EAB62
:1009D00026F0030018495D45184428BF5D462A46A5
:1009E00000F0F4FA2A46FF21134800F017FB4FEA03
:1009F000AB0B114930465FFA8BF2FFF767FD0546F6
:100A0000002800F0438106EB8B06044698E700BF00
:100A1000482400209425002054240020610500086B
:100A20009829002090240020AA4000084C2400208F
:100A300050240020AC400008942400200220FFF73E
:100A40001FFD00283FF4F6AEFFF730FD00283FF40D
:100A5000F1AE4FF0000B5946DAF808305B4542D949
:100A6000BBF11F0F38D80E9B013335D02BF0030399
:100A700016AA134453F8203C099385484368CBB920
:100A80001A464FF0080C02F0010E5208BEF1000F9A
:100A900007D082F06D4282F4380282F4034282F081
:100AA0002002BCF1010CEED140F823200133B3F554
:100AB000807FE5D1002276480DF1240C12F80C302D
:100AC00001324B40042ADBB250F8233083EA112173
:100AD000F4D10BF1040BBFE75846019100F090F9F7
:100AE00001990990C9E716A840F84C1D042100F0AF
:100AF00053F925E716A80023642140F8343D00F09F
:100B00000DF900287FF496AE0220FFF7B9FC00280B
:100B10003FF490AE099800F0A3F916AB43F8480DE6
:100B200004211846E3E716A80023642140F8343D69
:100B300000F0F4F800287FF47DAE0220FFF7A0FC5F
:100B400000283FF477AE099800F08CF916AB43F813
:100B5000440DE5E70220FFF793FC00283FF46AAE5E
:100B600000F086F916AB43F8400DD9E70220FFF7F5
:100B700087FC00283FF45EAE09A9142000F07EF93E
:100B8000834616A8042140F83CBD00F005F95946FB
:100B900009A8ACE7322000F07FF8B0F1000BFFF6B7
:100BA00049AE1BF0030F7FF445AE0BEB0803DAF8F8
:100BB000082093423FF63EAE0220FFF761FC00287A
:100BC0003FF438AE2BF0030BC344D8453FF4B8AE26
:100BD000404608F1040800F013F90421089008A821
:100BE00000F0DAF8F1E74FF47A70FFF749FC0028DB
:100BF0003FF420AEFFF75AFC00283FF487AE0E9B6F
:100C000001330CD008220EA90020FFF75FFC00285A
:100C10003FF47CAE2022FF210EA800F0FFF9FFF781
:100C200037FC1C4801F0E4FA17B0BDE8F08F002C47
:100C30003FF400AE002D3FF4FDAD16A80023642163
:100C400040F8343D00F06AF8834600287FF4F2ADA6
:100C50000220FFF715FC00283FF4ECAD0190FFF7F0
:100C600017FC41F288305F4601F0C2FA099800F0A3
:100C700021FA00F0DBF9019B1D461C4691E5044674
:100C80005EE64FF00008D5E52C46D3E525463DE667
:100C900098250020A08601002DE9F7431B4E002374
:100CA0004FF47A7496F900208DF80730511CA0FBA0
:100CB00004890BD1164801220DF1070103681F6A50
:100CC0004346B847012803D1002011E0002AF1D0A3
:100CD00096F900305A1C01D0012B10D10D48012289
:100CE0000DF1070103681D6A4346A847012806D194
:100CF000094B18709DF8070003B0BDE8F0834FF46E
:100D0000FA7001F075FA4FF0FF30F5E7002400208B
:100D1000EC2E0020402A0020BC2900202DE9F047BD
:100D2000194E4FF47A74074696F90020A1FB049AF5
:100D3000511C0BD11548042239460368D3F8208092
:100D40004B46C047042803D1002311E0002AF1D00C
:100D500096F900305A1C01D0012B0ED10C48042208
:100D6000394603681D6A4B46A847042805D101236C
:100D7000084A00201370BDE8F0874FF4FA7001F0C4
:100D800037FA4FF0FF30F6E700240020EC2E002069
:100D9000402A0020BC290020074B30B41A78074BAA
:100DA00053F822400A46014623682046DD69044B79
:100DB000AC4630BC604700BFBC290020C0400008E2
:100DC000A0860100F8B50A4C00250A4E01F058FC37
:100DD000094F207030682378834207D901F04CFC1A
:100DE000336805440133BD423360F3D9F8BD00BF19
:100DF000BD290020A0290020FFFF010001F00CBD4B
:100E000000F1006000F500300068704700F10060FC
:100E1000920000F5003001F08FBC0000054B1A680D
:100E2000054B1B789B1A834202D9104401F024BC65
:100E300000207047A0290020BD29002038B5074DAB
:100E400004462868204401F01DFC28B92868204485
:100E5000BDE8384001F028BC38BD00BFA029002003
:100E600000207047014BC058704700BF00E8F11FD9
:100E7000014B1868704700BF0010005C234BF0B5B1
:100E8000234C1B682588C3F30B0766681B0C94F979
:100E90000820AF4228D0A589AF4206D101220C25F7
:100EA00005FB0244666894F9082041F20104A3425C
:100EB0001CD041F20304A3421AD042F20104A3421F
:100EC00018D042F20304A34208BF5622451E013E39
:100ED0000B460D44AB4217D216F9010F5C1C58B1FA
:100EE00004F8010C2346F5E70022D8E75A22EDE783
:100EF0005922EBE75822E9E72C20A542187001D9C6
:100F00009C1C5A70601AF0BD1C46FBE70010005C88
:100F100004240020104B41F201015B888B429AB2FD
:100F200011D041F203018B420FD042F201039A42E9
:100F30000DD042F203039A420BD10323074A02EB7E
:100F40008303D87870470023F8E70123F6E70223EC
:100F5000F4E70020704700BF0010005CB0400008BC
:100F6000022804D1054B4FF480329A617047012862
:100F7000FCD1034B4FF00072F7E700BF00040258AA
:100F800000100258022803D1044B01229A617047D5
:100F90000128FCD1024B4FF40072F7E7000402581D
:100FA00000100258022805D1064A536983F0010354
:100FB000536170470128FCD1034A536983F40073DD
:100FC000F6E700BF0004025800100258002310B5D5
:100FD000934203D0CC5CC4540133F9E710BD000048
:100FE00030B5441E14F9010F0B4638B193F9005087
:100FF0000131854202D112B1013AF3E71AB193F9F6
:101000000020801A30BD1046FCE70000024603466F
:10101000981A13F9011B0029FAD1704702440346BC
:10102000934202D003F8011BFAE77047024B1A788B
:10103000024B1A70704700BFBC290020002400201A
:1010400038B5164C164D204600F016FC29462046B1
:1010500000F03EFC2D681348D5F89020D2F80438F3
:1010600043F00203C2F8043801F0C2F80E492846E2
:1010700000F038FDD5F890200C48D2F804380C491F
:10108000A04223F00203C2F804384FF4E1330B60AE
:1010900003D0BDE8384000F04DBB38BDEC2E002039
:1010A000A041000840420F00C8410008402A00202B
:1010B000A429002038B50B4B05461A780A4B53F883
:1010C00022400A4B9C420CD0094B002118221846A2
:1010D000FFF7A4FF056001462046BDE8384000F058
:1010E00029BB38BDBC290020C0400008EC2E0020E0
:1010F000A4290020FEE7000000B59BB0EFF30981B2
:1011000068226846FFF762FFEFF30583034B9A6B93
:101110009A6A9A6A9A6A9A6A9B6AFEE700ED00E008
:1011200000B59BB0EFF3098168226846FFF74EFFD8
:10113000EFF30583044B9A6B9A6A9A6A9A6A9A6AE1
:101140009A6A9B6AFEE700BF00ED00E000B59BB025
:10115000EFF3098168226846FFF738FFEFF3058354
:10116000034B5A6B9A6A9A6A9A6A9A6A9B6AFEE772
:1011700000ED00E0002304491A465A50C81808330D
:101180004260802BF9D17047C0290020024A1368C1
:1011900043F0C0031360704700440040044B5A689A
:1011A00010439A6858600AB1181D1047704700BF75
:1011B000402A00202DE9F84F404EF56D2F68EC696C
:1011C00021072C6219D014F0080F0CBF00208020DA
:1011D000E20748BF40F02000A3074FF0200348BFBC
:1011E00040F04000610748BF40F4807083F31188ED
:1011F000FFF7D4FF002383F31188E20509D52023EC
:1012000083F311884FF40070FFF7C8FF002383F3C6
:1012100011884FF02009DFF8A4A04FF0000B14F064
:10122000200838D13B0615D54FF02009DFF890A0F3
:1012300020060FD589F31188504600F0EFF90028F9
:1012400036DA0820FFF7AAFF27F080032B6000237F
:1012500083F31188790613D5620611D5202383F311
:101260001188D6E913239A4207D1336C2BB127F0AA
:1012700040071020FFF792FF2F60002383F31188AF
:10128000E30604D5B26E13690BB150699847BDE807
:10129000F84F01F05BBB89F31188AB8C504696F890
:1012A0006410194000F054FA8BF31188EC69B6E72A
:1012B00080B2288588F31188EC69B9E7402A0020BC
:1012C000782A002013B5104C204600F027FA04F1CC
:1012D0001400009400234FF400720C4900F0E8F869
:1012E00004F1380000944FF40072094B094900F0F2
:1012F00061F9094A094B0C212620C4E9172302B0E1
:10130000BDE8104000F05EB8402A0020AC2A002062
:101310008D110008AC2C00200044004000E1F505D0
:10132000254B002908BF1946037C012B816630B587
:1013300011D1224B98420ED1214BD3F8E82042F430
:101340000032C3F8E820D3F8102142F40032C3F889
:101350001021D3F810310A68036EC46D03EB5203F9
:10136000B3FBF2F34A68150442BF23F0070503F00C
:10137000070343EA4503E3608B6843F0400363607F
:10138000CB68510543F00103A36042F4967343F028
:10139000010323604FF0FF33236205D512F01022C2
:1013A00005D0B2F1805F04D080F8643030BD7F2377
:1013B000FAE73F23F8E700BFE4400008402A002096
:1013C0000044025800F1604300F01F020901400987
:1013D00003F56143C9B2800083F80013012300F1D3
:1013E0006040934000F56140C0F880310360704771
:1013F000F8B51546826804460B46AA4200D28568B5
:10140000A1692669761AB54207D218462A46FFF71F
:10141000DDFDA3692B44A3610DE011D9AF1B32465A
:101420001846FFF7D3FD3A46E1683044FFF7CEFD9A
:10143000E2683A44A261A36828465B1BA360F8BD3A
:1014400018462A46FFF7C2FDE368E4E78368934243
:101450002DE9F04104460F46154600D28568D4E9CF
:101460000460361AB54207D22A463946FFF7AEFD68
:1014700063692B4463610EE013D9A5EB060832467D
:101480003946FFF7A3FD4246B919E068FFF79EFD14
:10149000E26842446261A36828465B1BA360BDE822
:1014A000F0812A463946FFF791FDE368E2E7000044
:1014B00010B50A440024C361029B8460C1600261CC
:1014C0000362C0E90000C0E9051110BD08B5D0E90C
:1014D0000532934201D1826882B98268013282600A
:1014E0005A1C426119700021D0E904329A4224BF8B
:1014F000C368436100F098FE002008BD4FF0FF3044
:10150000FBE7000070B5202304460E4683F31188E4
:10151000A568A5B1A368A269013BA360531CA361A0
:1015200015782269934224BFE368A361E3690BB194
:1015300020469847002383F31188284607E0314668
:10154000204600F061FE0028E2DA85F3118870BDC4
:101550002DE9F74F05460F4690469A46D0F81C9065
:10156000202686F311884FF0000B144664B1224602
:1015700039462846FFF73CFF034668B951462846DE
:1015800000F042FE0028F1D0002383F31188A8EB7D
:10159000040003B0BDE8F08FB9F1000F03D0019053
:1015A0002846C847019B8BF31188E41A1F4486F331
:1015B0001188DBE7C160C361009B82600362C0E900
:1015C00005111144C0E9000001617047F8B50446F7
:1015D0000E461746202383F31188A568A5B1A3689A
:1015E000013BA36063695A1C62611E70D4E9043236
:1015F0009A4224BFE3686361E3690BB120469847D0
:10160000002080F3118807E03946204600F0FCFDF9
:101610000028E2DA85F31188F8BD0000D0E905233F
:1016200010B59A4201D182687AB9826800210132EC
:1016300082605A1C82611C7803699A4224BFC36885
:10164000836100F0F1FD204610BD4FF0FF30FBE755
:101650002DE9F74F05460F4690469A46D0F81C9064
:10166000202686F311884FF0000B144664B1224601
:1016700039462846FFF7EAFE034668B95146284630
:1016800000F0C2FD0028F1D0002383F31188A8EBFD
:10169000040003B0BDE8F08FB9F1000F03D0019052
:1016A0002846C847019B8BF31188E41A1F4486F330
:1016B0001188DBE7026843681143016003B11847F2
:1016C000704700001430FFF743BF00004FF0FF33B6
:1016D0001430FFF73DBF00003830FFF7B9BF0000FE
:1016E0004FF0FF333830FFF7B3BF00001430FFF77F
:1016F00009BF00004FF0FF311430FFF703BF0000B7
:101700003830FFF763BF00004FF0FF323830FFF78B
:101710005DBF000000207047FFF7D4BD044B03609D
:1017200000234360C0E9023301230374704700BF04
:10173000FC40000810B52023044683F31188FFF70E
:10174000EFFD02232374002383F3118810BD0000F2
:1017500038B5C36904460D461BB904210844FFF798
:10176000A9FF294604F11400FFF7B0FE002806DAAD
:10177000201D4FF48061BDE83840FFF79BBF38BDA6
:10178000026843681143016003B1184770470000C5
:1017900013B5446BD4F894341A681178042915D120
:1017A000217C022912D11979012312898B4013421D
:1017B0000CD101A904F14C0001F07EFFD4F894444F
:1017C0000246019B2179206800F0E4F902B010BDC7
:1017D000143001F001BF00004FF0FF33143001F06E
:1017E000FBBE00004C3001F0D3BF00004FF0FF33D0
:1017F0004C3001F0CDBF0000143001F0CFBE00002E
:101800004FF0FF31143001F0C9BE00004C3001F040
:101810009FBF00004FF0FF324C3001F099BF000035
:10182000D0F8942438B5136805461978042901D0F6
:10183000012038BD017C0229FAD1127901205C898E
:1018400090400440F4D105F1140001F061FE02461D
:101850000028EDD0D5F894544FF480732868697946
:1018600000F086F92046E4E7406BFFF7D9BF00009F
:1018700000207047704700007FB5124B01250226FB
:10188000044603600023057400F184024360294686
:10189000C0E902330C4B0290143001934FF4807373
:1018A000009601F011FE094B04F52372294604F15C
:1018B0004C000294CDE900634FF4807301F0D8FE30
:1018C00004B070BD24410008691800089117000891
:1018D0000A68202383F311880B790B3342F8230025
:1018E0004B79133342F823008B7913B10B3342F851
:1018F00023000223C0F894140374002383F3118897
:101900007047000038B5037F044613B190F8543097
:10191000ABB90125201D0221FFF732FF04F11400AD
:1019200025776FF0010100F08BFC84F8545004F12E
:101930004C006FF00101BDE8384000F081BC38BDBB
:1019400010B5012104460430FFF71AFF0023237766
:1019500084F8543010BD000038B50446002514301A
:1019600001F0CAFD04F14C00257701F099FE201D1D
:1019700084F854500121FFF703FF2046BDE83840AA
:10198000FFF74EBF90F8803003F06003202B07D1A3
:1019900090F88130202B03D3212B03D9222B09D09F
:1019A00000207047054B4367072383670023C36705
:1019B000012070470023C0E91D33F8E71C240020F4
:1019C000D0F8943437B51A680446117804291AD12E
:1019D000017C022917D11979012312898B40134206
:1019E00011D100F14C05284601F01AFF58B101A9A8
:1019F000284601F061FED4F894440246019B217907
:101A0000206800F0C7F803B030BD000001F10B03FF
:101A1000F7B550F8234005460E46F4B1202383F372
:101A2000118805EB8607201D08214C34FFF7A8FE1E
:101A3000FB685B691B6813B1204601F04BFE01A9EE
:101A4000204601F039FE024648B1019B3146284646
:101A500000F0A0F8002383F3118803B0F0BDFB6809
:101A60005A691268002AF5D01B8A013B1340F1D154
:101A700005F18002EAE70000133138B550F8214043
:101A8000DCB1202383F31188D4F8942413685279AD
:101A900003EB8203DB689B695D6845B10421601834
:101AA000FFF76EFE294604F1140001F03BFD2046CD
:101AB000FFF7B6FE002383F3118838BD704700009E
:101AC00001F038B8012300F1300200F15001037039
:101AD0000023436042F8043B8A42D361FAD1836019
:101AE0007047000038B50446202383F31188002591
:101AF00000F10C0300F13002416043F8045B9342B3
:101B0000FBD1204601F038F80223237085F31188B9
:101B100038BD000070B500EB8103054650690E46E4
:101B20001446DA6018B110220021FFF777FAA06995
:101B300018B110220021FFF771FA31462846BDE89E
:101B4000704001F02BB90000028902F0010202810D
:101B5000428902F0010242810022C0E90422C0E968
:101B60000622C0E90822C0E90A2201F0AFB900004C
:101B7000F0B4012500EB810447898D40E4683D43C2
:101B8000A469458123600023A2606360F0BC01F07A
:101B9000CBB90000F0B4012500EB810407898D402A
:101BA000E4683D436469058123600023A2606360AB
:101BB000F0BC01F041BA0000022300F10C0200F178
:101BC000300110B5037004460023C0F888308360EC
:101BD00042F8043B8A42FBD184F87030204601F081
:101BE00071F863681B6823B120460021BDE81040EE
:101BF000184710BD0278436880F88C2005221B68C6
:101C000002700BB10421184770470000436890F838
:101C10008C201B6802700BB105211847704700002B
:101C200090F8703070B5044613B1002380F870301E
:101C300004F18002204601F06DF963689B6863BB84
:101C400094F8803013F0600515D194F8812003F0EA
:101C50007F0343EA022340F20232934200F00881FC
:101C60005BD8022B00F0DB803FD8002B00F0868091
:101C7000012B00F0CE800021204601F001FC002164
:101C8000204601F0F1FB63681B6813B10621204672
:101C90009847062384F8703070BD20469847002886
:101CA000CED094F8872094F8863043EA0223A26FBE
:101CB0009A4288BFA36794F98030A56F002B4FF03C
:101CC000200380F2F780002D00F0E680092284F8DE
:101CD000702083F3118800212046D4E91D23FFF7EB
:101CE00059FF002383F31188D6E7B3F5817F00F015
:101CF000AB80B3F5407F48D0B3F5807FBBD194F87B
:101D00008230012BB7D1B4F8883023F00203A4F855
:101D10008830C4E91D55E567C3E740F2016293428C
:101D20001DD8B3F5C06F3AD2B3F5A06FA3D1B4F804
:101D30008030B3F5A06F0ED194F88230204684F83D
:101D40008A3001F01DF863681B6813B10121204639
:101D50009847032323700023C4E91D3313E0B3F530
:101D6000106F32D040F60242934252D0B3F5006F6A
:101D700081D104F18B036367012324E004F188021D
:101D800062670222A267E3678BE794F88230012B37
:101D90007FF471AFB4F8883043F00203B7E794F8EA
:101DA00085202046616894F884304E6843EA022317
:101DB00094F8831094F88220B04700283FF45BAF7A
:101DC000436863670368A367A5E72378042B10D1F2
:101DD000202383F311882046FFF7B6FE85F3118890
:101DE0006368032184F88B501B6821700BB1204677
:101DF000984794F88230002BADD084F88B300423C0
:101E0000237063681B68002BA5D0022120469847E9
:101E1000A1E7354B63670223A3670023B3E794F878
:101E2000843020461D0603F00F010AD501F064F846
:101E3000012804D002287FF41EAF2C4BEAE72C4B7C
:101E4000E8E701F04BF8F3E794F88230002B7FF4D9
:101E500012AF94F8843013F00F013FF47CAF1A06F0
:101E6000204602D501F024FB75E701F015FB72E76F
:101E700094F88230002B7FF4FEAE94F8843013F097
:101E80000F013FF468AF1B06204602D501F0F8FAB7
:101E900061E701F0E9FA5EE7142284F8702083F329
:101EA00011882B462A4629462046FFF761FE85F316
:101EB0001188F1E65DB1152284F8702083F3118852
:101EC00000212046D4E91D23FFF752FE09E70B222B
:101ED00084F8702083F311882B462A462946204631
:101EE000FFF758FEE3E700BF544100084C410008EB
:101EF0005041000838B590F870300446152B39D899
:101F0000DFE803F03E38383838383E38380B2939A6
:101F100038383838383838383E3E90F8871090F8DE
:101F20008620836F42EA0122934214D2C268128A49
:101F3000B3FBF2F502FB15356DB9202383F311884D
:101F40002B462A462946FFF725FE85F311880A23EA
:101F500084F870300EE0142384F87030202383F36B
:101F60001188002320461A461946FFF701FE002378
:101F700083F3118838BDC36F03B198470023E7E7A7
:101F8000002101F07DFA0021204601F06DFA63681E
:101F90001B6813B10621204698470623D8E70000A6
:101FA00090F87020152A38B5044617D801239340BD
:101FB00040F6416213421ED113F480150FD19B02EB
:101FC0000CD50B2380F87030202383F311882B4627
:101FD0002A462946FFF7DEFD85F3118838BDC36820
:101FE0009B695B68002BF9D1C36F03B1984700234D
:101FF00084F87030F2E7002101F042FA0021204617
:1020000001F032FA63681B6813B106212046984735
:102010000623EDE7024B0022C3E900339A607047C4
:10202000AC2E0020002382680374054B1B6899685E
:102030009142FBD25A68036042601060586070475A
:10204000AC2E002008B5202383F31188037C032BDA
:1020500005D0042B0DD02BB983F3118808BD43693B
:1020600000221A604FF0FF334361FFF7DBFF0023CC
:10207000F2E7D0E900231A6002685360F2E700003B
:10208000002382680374054B1B6899689142FBD852
:102090005A6803604260106058607047AC2E0020A0
:1020A000054B196908741868026853601A60186152
:1020B00001230374FEF788B9AC2E00204B1C30B509
:1020C000054687B00A4C10D0236901A8094A00F0E0
:1020D000D3F82846FFF7E4FF049B13B101A800F0F2
:1020E00007F92369586907B030BDFFF7D9FFF8E752
:1020F000AC2E00204520000838B50C4D0446416147
:102100002B6981689A68914203D8BDE83840FFF78F
:1021100089BF1846FFF786FF01232C61014623740F
:102120002046BDE83840FEF74FB900BFAC2E002076
:10213000044B1A681B6990689B68984294BF002002
:1021400001207047AC2E002010B5084C2368206990
:102150001A6854602260012223611A74FFF790FF0D
:1021600001462069BDE81040FEF72EB9AC2E0020D4
:10217000FFF7EABF82600222028270478368A3F100
:102180007C0243F80C2C026943F83C2C426943F86A
:10219000382C074A43F81C2CC268A3F1180043F8F6
:1021A000102C022203F8082C002203F8072C704799
:1021B000E103000810B5202383F31188FFF7DEFF49
:1021C00000210446FFF798FF002383F3118820467F
:1021D00010BD0000024B1B6958610F20FFF760BF64
:1021E000AC2E0020202383F31188FFF7F3BF0000FB
:1021F00008B50146202383F311880820FFF75EFF0E
:10220000002383F3118808BD49B1064B42681B695E
:1022100018605A60136043600420FFF74FBF4FF00F
:10222000FF307047AC2E00200368984206D01A6831
:102230000260506018465961FFF7F4BE7047000015
:1022400038B504460D462068844200D138BD036885
:1022500023605C604561FFF7E5FEF4E7054B4FF056
:10226000FF3103F11402C3E905220022C3E907127A
:10227000704700BFAC2E0020F8B5C0E903231A4A0E
:1022800006460229194B1046174638BF02215B6AE1
:1022900050F8145F85420AD113625818C2E90566E6
:1022A000C6E90055B160BDE8F84001F0D9BA106A3E
:1022B0001B1A5C18AB6802D3E41A2D6804E0A34231
:1022C00002D9204401F0DCFAAB68A342F4D36B6876
:1022D000356073601E606E60B460AB681C1B4FF0AD
:1022E000FF33AC60FB61F8BDAC2E0020000C004059
:1022F00010B41A4C234653F8141F814210D0D0E971
:1023000000210A60026851609A424FF00001C160EA
:1023100003D0936881680B4493605DF8044B704769
:102320000A6800209A4262615360C86003D15DF878
:10233000044B01F09FBA936888680344206A936055
:10234000074A526A121A9342E7D9991A5DF8044B68
:10235000012998BF931C184401F092BAAC2E0020BA
:10236000000C004000207047FEE7000070470000AE
:102370004FF0FF3070470000022906D0032906D035
:102380000129064818BF0020704705487047032AF6
:102390009ABF044800EBC2000020704724420008A6
:1023A000D84100082424002070B59AB0064608469B
:1023B000144601AD294600F095F82846FEF726FEA2
:1023C000C0B2431C5B00C6E900342370032302340F
:1023D00004F8013C00231946DAB20234904201D8D5
:1023E0001AB070BDEA5C013304F8011C04F8022C39
:1023F000F2E7000008B5202383F311880348FFF7B4
:10240000DFFA002383F3118808BD00BFEC2E002003
:1024100010B50446052916D8DFE801F01615031695
:10242000161D202383F311880E4A0121FFF772FB4A
:1024300020460D4A0221FFF76DFB0C48FFF78CFA8E
:10244000002383F3118810BD202383F311880748EC
:10245000FFF758FAF4E7202383F311880348FFF7C6
:102460006FFAEDE7584100087C410008EC2E00208F
:1024700038B50C4D0C4C2A460C4904F10800FFF706
:1024800093FF05F1CA0204F110000949FFF78CFF20
:1024900005F5CA7204F118000649BDE83840FFF797
:1024A00083BF00BFB433002024240020A8410008CB
:1024B000B2410008BD41000870B5044608460D460B
:1024C000FEF7A4FDC6B22046013403780BB91846C6
:1024D00070BD32462946FEF783FD0028F3D1012066
:1024E000F6E700002DE9F04704460D46FEF78EFDA5
:1024F0002B49C6B22046FFF7DFFF08B10736F6B218
:1025000028492046FFF7D8FF08B11036F6B2632EEF
:102510000BD8DFF88C80DFF88C90234FDFF894A085
:10252000267846B92E70BDE8F08721462846BDE8DA
:10253000F04701F0B1BD252E2ED10722414620469D
:10254000FEF74EFD70B9194B2A4603F10C0153F802
:10255000040B8B4242F8040BF9D11B8807340E356B
:102560001380DDE7082249462046FEF739FD98B979
:10257000AA1C0F4B197802320909C95D02F8041C24
:1025800013F8011B01F00F015345C95D02F8031C4C
:10259000F0D118350834C3E72E7001340135BFE798
:1025A00044420008BD4100085B4200084C4200085C
:1025B00000E8F11F0CE8F11FBFF34F8F044B1A69BD
:1025C0005107FCD1D3F810215207F8D1704700BF52
:1025D0000020005208B50D4B1B78ABB9FFF7ECFF9C
:1025E0000B4BDA68D10704D50A4A5A6002F18832E7
:1025F0005A60D3F80C21D20706D5064AC3F8042145
:1026000002F18832C3F8042108BD00BF1236002051
:10261000002000522301674508B5114B1B78F3B920
:10262000104B1A69510703D5DA6842F04002DA60AC
:10263000D3F81021520705D5D3F80C2142F04002FF
:10264000C3F80C21FFF7B8FF064BDA6842F001022D
:10265000DA60D3F80C2142F00102C3F80C2108BD66
:1026600012360020002000520F289ABF00F580602B
:1026700040040020704700004FF400307047000015
:10268000102070470F2808B50BD8FFF7EDFF00F5B5
:1026900000330268013204D104308342F9D10120B1
:1026A00008BD0020FCE700000F2810B504463FD805
:1026B000FFF782FFFFF78EFF1E484FF0FF33072C16
:1026C0004361C0F814311DD80361FFF775FF230281
:1026D00043F02403C360C36843F08003C36003690D
:1026E0005A07FCD4FFF768FF2046FFF7BDFF4FF401
:1026F000003100F0F7F8FFF78FFF2046BDE81040EB
:10270000FFF7C0BFC0F81031FFF756FFA4F1080370
:102710001B0243F02403C0F80C31D0F80C3143F015
:102720008003C0F80C31D0F810315B07FBD4D9E737
:10273000002010BD002000522DE9F84F40EA0203AE
:1027400005460F461646DB0656D13C46DFF8C090DC
:10275000DFF8C0A0FFF73EFFBB191B1B1F2B04D8DF
:10276000FFF75AFF0120BDE8F88F202221462846B6
:1027700001F082FC002837D005F17843214A224835
:102780009342224B98BF984603F5827392BFD3467B
:10279000C8469B46A3F1080388BF1846FFF70CFF05
:1027A0004FF0FF3304F11C01A5EB040CCBF8003013
:1027B000036843F002030360231FD8F8002012F0DF
:1027C000050FFAD153F8042F99424CF80320F4D1A5
:1027D000BFF34F8FFFF7F0FE4FF0FF33CBF8003021
:1027E000036823F00203036020222146284601F0FB
:1027F00043FC18B1FFF710FF0020B4E72035203468
:10280000AAE700BFFFFF0F000C200052102000526B
:10281000102100521420005210B5084C237828B122
:102820001BB9FFF7D7FE0123237010BD002BFCD08E
:102830002070BDE81040FFF7EFBE00BF1236002049
:1028400002440439064BD2B210B5904200D110BDFB
:10285000441C00B253F8200041F8040FE0B2F4E742
:10286000504000580F4B30B51C6F240405D41C6F2A
:102870001C671C6F44F400441C670B4C0244043971
:102880002368D2B243F480732360084B904200D196
:1028900030BD441C51F8045F00B243F82050E0B250
:1028A000F4E700BF00440258004802585040005866
:1028B00007B5012201A90020FFF7C2FF019803B06C
:1028C0005DF804FB13B50446FFF7F2FFA04206D003
:1028D00002A90122002041F8044DFFF7C3FF02B016
:1028E00010BD00000144BFF34F8F064B884204D354
:1028F000BFF34F8FBFF36F8F7047C3F85C02203078
:10290000F4E700BF00ED00E0034B1B685B0142BF32
:10291000024B01221A707047D0440258133600202F
:10292000014B1878704700BF13360020064A5368E1
:1029300023F001035360EFF30983683383F30988BD
:10294000002383F31188704730EF00E010B5202397
:1029500083F31188104B5B6813F4006318D0F1EE19
:10296000103AEFF309844FF0807344F84C3C0B4B62
:10297000DB6844F8083CA4F1680383F30988FFF797
:10298000D7FB18B1064B44F8503C10BD054BFAE795
:1029900083F31188F9E700BF00ED00E030EF00E0BD
:1029A000F1030008F4030008F0B5BFF34F8FBFF345
:1029B0006F8F1D4B0021C3F85012BFF34F8FBFF331
:1029C0006F8F5A6942F400325A61BFF34F8FBFF3E1
:1029D0006F8FC3F88410BFF34F8FD3F8802043F676
:1029E000E076C2F3C904C2F34E32A507520102EAEF
:1029F000060C284621464CEA0007013900F1404008
:102A0000C3F860724F1CF6D1203A12F1200FEED1BC
:102A1000BFF34F8F5A6942F480325A61BFF34F8F30
:102A2000BFF36F8FF0BD00BF00ED00E0FEE70000D8
:102A3000084A094B09498B4204D3094A00219342B1
:102A400005D3704752F8040F43F8040BF3E743F83B
:102A5000041BF4E748440008603900206039002076
:102A60006039002030B50022D0E9244311464FF0F0
:102A7000FF309D6804EB421301329542C3F8001900
:102A8000C3F81019C3F80809C3F8001BC3F8101BDA
:102A9000C3F8080BEED24FF00113C4F81C3830BD58
:102AA00000EB8103D3F80CC02DE9F047DCF81420CB
:102AB0004E1CD0F89050D2F800E005EB063605EB3E
:102AC0004118506870450AD30120D5F8343800FA0F
:102AD00001F123EA0101C5F83418BDE8F087AEEB37
:102AE0000003BCF81040A34228BF2346D8F8184979
:102AF000A4B2B3EB840F10D894681F46A4F1040964
:102B000059F804AF042FC6F800A001D9043FF7E735
:102B10001C44034494605360D3E70020DDE70000C9
:102B2000890141F02001016103699B06FCD4122058
:102B300000F036BF10B50A4C2046FEF7C3FF094B24
:102B4000C4F89030084BC4F89430084C2046FEF787
:102B5000B9FF074BC4F89030064BC4F8943010BD51
:102B6000143600200000084090420008B0360020D3
:102B7000000004409C4200080378012B70B5054614
:102B80005DD1494BD0F89040984259D1474B0E2126
:102B90006520D3F8D82042F00062C3F8D820D3F8DB
:102BA000002142F00062C3F80021D3F80021D3F8DD
:102BB000802042F00062C3F88020D3F8802022F009
:102BC0000062C3F88020D3F88030FEF7FBFB384B5F
:102BD000E360384BC4F800380023D5F89060C4F89F
:102BE000003EC02323604FF40413A3633369002B1A
:102BF000FCDA01230C20336100F0D2FE3369DB07DD
:102C0000FCD4122000F0CCFE3369002BFCDA002645
:102C10002846A660FFF726FF6B68C4F81068DB68DB
:102C2000C4F81468C4F81C68002B3AD1224BA36185
:102C30004FF0FF336361A36843F00103A36070BDED
:102C40001E4B9842C8D1194B0E214D20D3F8D820E5
:102C500042F00072C3F8D820D3F8002142F000728D
:102C6000C3F80021D3F80021D3F8802042F000728D
:102C7000C3F88020D3F8802022F00072C3F88020AF
:102C8000D3F88020D3F8D82022F08062C3F8D8206F
:102C9000D3F8002122F08062C3F80021D3F800317C
:102CA00093E7074BC3E700BF1436002000440258E7
:102CB0004014004003002002003C30C0B036002029
:102CC000083C30C0F8B5D0F89040054600214FF0E0
:102CD00000662046FFF724FFD5F8941000234FF03C
:102CE00001128F684FF0FF30C4F83438C4F81C2844
:102CF00004EB431201339F42C2F80069C2F8006B33
:102D0000C2F80809C2F8080BF2D20B68D5F8902077
:102D1000C5F89830636210231361166916F0100627
:102D2000FBD1122000F03CFED4F8003823F4FE63FF
:102D3000C4F80038A36943F4402343F01003A361AF
:102D40000923C4F81038C4F814380B4BEB604FF06B
:102D5000C043C4F8103B094BC4F8003BC4F81069E9
:102D6000C4F80039D5F8983003F1100243F4801309
:102D7000C5F89820A362F8BD6C420008408000109E
:102D8000D0F8902090F88A10D2F8003823F4FE632F
:102D900043EA0113C2F80038704700002DE9F843F8
:102DA0000EB20D4600EB8609D9F80C20176807F023
:102DB0000303022B58D0032B58D03F4F3F49012B20
:102DC00018BF0F46D0F8904069014FF0000C63180F
:102DD000C3F810CB05F110034FF0010C0CFA03FC03
:102DE0009369002B44D0B2F812E005F158034EEA83
:102DF000070E5B0144F803E0D4F81C3843EA0C03E7
:102E0000C4F81C38214400234FF00108C1F81039E0
:102E100008FA05F85369691EBBB3138A928B9B08A5
:102E2000012A88BF5343D0F898209E1842EA0343F2
:102E300001F140022946C0F89860204604EB820266
:102E40005360FFF76DFED9F80C301B8A43EA8553B7
:102E500048351F436D016751D4F81C3843EA080315
:102E6000C4F81C38BDE8F883154FABE7154FA9E748
:102E700004EB461EDEF8003B23F40043CEF8003B93
:102E8000D4F81C3823EA0C03BAE705F13F030E4AD5
:102E900004EB4616294604EB830320465A60FFF7ED
:102EA0003FFED6F8003923F40043C6F80039D4F8C1
:102EB0001C3823EA0803D3E70080041000800010C8
:102EC0000080081000800C1000040002D0F894204C
:102ED0001268C0F89820FFF7C5BD00005831D0F83F
:102EE000903049015B5813F4004004D013F4001FE4
:102EF00014BF0120022070474831D0F890304901BA
:102F00005B5813F4004004D013F4001F14BF0120D9
:102F10000220704700EB8101CB68196A0B681360CF
:102F20004B6853607047000000EB810330B5DD68EB
:102F3000AA691368D36019B9402B84BF402313607A
:102F40006B8A1468D0F890201C4402EB4110013CBD
:102F500009B2B4FBF3F46343033323F0030343EAFE
:102F6000C44343F0C043C0F8103B2B6803F0030395
:102F7000012B0ED1D2F8083802EB411013F4807FF8
:102F8000D0F8003B14BF43F0805343F00053C0F827
:102F9000003B02EB4112D2F8003B43F00443C2F87D
:102FA000003B30BD2DE9F041D0F8906005460C465D
:102FB00006EB4113D3F8087B3A07C3F8087B08D522
:102FC000D6F814381B0704D500EB8103DB685B6877
:102FD0009847FA071FD5D6F81438DB071BD505EB41
:102FE0008403D968CCB98B69488A5E68B6FBF0F275
:102FF00000FB12628AB91868DA6890420DD2121A80
:10300000C3E90024202383F3118821462846FFF7D3
:103010008BFF84F31188BDE8F081012303FA04F2E9
:103020006B8923EA02036B81CB68002BF3D0214626
:103030002846BDE8F041184700EB81034A0170B50E
:10304000DD68D0F890306C692668E66056BB1A449B
:103050004FF40020C2F810092A6802F00302012A86
:103060000AB20ED1D3F8080803EB421410F4807FA3
:10307000D4F8000914BF40F0805040F00050C4F86C
:10308000000903EB4212D2F8000940F00440C2F8F4
:1030900000090122D3F8340802FA01F10143C3F810
:1030A000341870BD19B9402E84BF402020602068BC
:1030B0001A442E8A841940F00050013CB4FBF6F407
:1030C00040EAC440C6E700002DE9F041D0F8906026
:1030D00004460D4606EB4113D3F80879C3F8087986
:1030E000FB071CD5D6F81038DA0718D500EB81039A
:1030F000D3F80CC0DCF81430D3F800E0DA68964559
:103100001BD2A2EB0E024FF000081A60C3F8048035
:10311000202383F31188FFF78FFF88F311883B0684
:1031200018D50123D6F83428AB40134212D02946D3
:103130002046BDE8F041FFF7B3BC012303FA01F2DA
:10314000038923EA02030381DCF80830002BE6D070
:103150009847E4E7BDE8F0812DE9F047D0F89050BA
:1031600004466E69AB691E40F1046E6103D5BDE88B
:10317000F047FEF721BD002E12DAD5F8003E9A077F
:1031800005D0D5F8003E23F00303C5F8003ED5F87E
:103190000438204623F00103C5F80438FEF736FD55
:1031A000330502D52046FEF725FDB7040CD5D5F82A
:1031B000083813F0060FEB6823F470530CBF43F488
:1031C000105343F4A053EB60300704D56368DB6809
:1031D0000BB120469847F10200F1A180B2020BD555
:1031E000D4F8908000274FF00109D4F89430F9B258
:1031F0009B688B4280F0D280F3061AD5D4F89010E9
:103200000A6AC2F30A1702F00F0302F4F012B2F5D1
:10321000802F00F0EB80B2F5402F0AD104EB83033E
:1032200001F58051DB68186A00231A469F4240F07E
:10323000D1803003D5F8185835D5E90303D50021DE
:103240002046FFF7AFFEAA0303D501212046FFF772
:10325000A9FE6B0303D502212046FFF7A3FE2F032F
:1032600003D503212046FFF79DFEE80203D5042184
:103270002046FFF797FEA90203D505212046FFF758
:1032800091FE6A0203D506212046FFF78BFE2B0232
:1032900003D507212046FFF785FEEF0103D508215E
:1032A0002046FFF77FFE700340F1C780E90703D592
:1032B00000212046FFF708FFAA0703D50121204679
:1032C000FFF702FF6B0703D502212046FFF7FCFE44
:1032D0002F0703D503212046FFF7F6FEEE0603D5A0
:1032E00004212046FFF7F0FEA80603D5052120465D
:1032F000FFF7EAFE690603D506212046FFF7E4FE44
:103300002A0603D507212046FFF7DEFEEB0540F134
:10331000948020460821BDE8F047FFF7D5BED4F8D9
:1033200090904FF000084FF0010AD4F894305FFA03
:1033300088F79B68BB42FFF451AF09EB4713D3F802
:10334000002902F44022B2F5802F24D1D3F80029BD
:10335000002A20DAD3F8002942F09042C3F800296D
:10336000D3F80029002AFBDB3946D4F89000FFF798
:10337000D7FB22890AFA07F322EA0303238104EB2D
:103380008703DB689B6813B1394620469847394666
:103390002046FFF785FB08F10108C6E708EB41125C
:1033A000D2F8003B03F44023B3F5802F10D1D2F8BC
:1033B000003B002B0CDA628909FA01F322EA0303CD
:1033C000638104EB8103DB68DB680BB1204698471F
:1033D00001370AE713F0030F00D10A68072B03F146
:1033E00001039EBF0270120A01301FE704EB830342
:1033F00001F58051DA689069D0F808E0D0E9002042
:10340000A2EB000C00221046974208D1DB689B69B2
:103410009A683A449A605A6817445F6009E712F064
:10342000030F00D10868944502F1010282BF8EF8B3
:103430000000000A0EF1010EE6E7BDE8F08700008B
:1034400008B50348FFF788FEBDE80840FFF77EBADD
:103450001436002008B50348FFF77EFEBDE808409B
:10346000FFF774BAB0360020D0F8903003EB41116A
:10347000D1F8003B43F40013C1F8003B7047000053
:10348000D0F8903003EB4111D1F8003943F4001328
:10349000C1F8003970470000D0F8903003EB4111BB
:1034A000D1F8003B23F40013C1F8003B7047000043
:1034B000D0F8903003EB4111D1F8003923F4001318
:1034C000C1F800397047000030B50433039C017225
:1034D000002104FB0325C160C0E90653049B03637C
:1034E000059BC0E90000C0E90422C0E90842C0E928
:1034F0000A11436330BD00000022416AC260C0E986
:103500000411C0E90A226FF00101FEF799BE000024
:10351000D0E90432934201D1C2680AB9181D70473C
:1035200000207047036919600021C2680132C2603F
:10353000C269134482699342036124BF436A0361F1
:10354000FEF772BE38B504460D46E3683BB16269CA
:103550000020131D1268A3621344E36207E0237A7C
:1035600033B929462046FEF74FFE0028EDDA38BD74
:103570006FF00100FBE70000C368C269013BC36054
:103580004369134482699342436124BF436A4361A0
:1035900000238362036B03B11847704770B5202383
:1035A000044683F31188866A3EB9FFF7CBFF0546D0
:1035B00018B186F31188284670BDA36AE26A13F831
:1035C000015B9342A36202D32046FFF7D5FF00239D
:1035D00083F31188EFE700002DE9F84F04460E460B
:1035E00090469946202787F311880025AA46D4F8EB
:1035F00028B0BBF1000F09D149462046FFF7A2FFD2
:1036000020B18BF311882846BDE8F88FD4E90A135E
:10361000A8EB050B5B1A9B4528BF9B46BBF1400FEF
:103620001BD9334601F1400251F8040B914243F893
:10363000040BF9D1A36A403640354033A362D4E984
:103640000A239A4202D32046FFF796FF8AF3118895
:103650004545D8D287F31188C9E730465A46FDF769
:10366000B5FCA36A5E445D445B44A362E7E70000E7
:1036700010B5029C0433017204FB0321C460C0E94D
:1036800006130023C0E90A33039B0363049BC0E9CC
:103690000000C0E90422C0E90842436310BD0000F5
:1036A000026A6FF00101C260426AC0E9042200228E
:1036B000C0E90A22FEF7C4BDD0E904239A4201D131
:1036C000C26822B9184650F8043B0B6070470020CE
:1036D00070470000C3680021C2690133C3604369B9
:1036E000134482699342436124BF436A4361FEF7F6
:1036F0009BBD000038B504460D46E3683BB1236925
:1037000000201A1DA262E2691344E36207E0237AF3
:1037100033B929462046FEF777FD0028EDDA38BD9B
:103720006FF00100FBE7000003691960C268013A0D
:10373000C260C269134482699342036124BF436A31
:10374000036100238362036B03B1184770470000D5
:1037500070B5202304460E4683F31188856A35B977
:103760001146FFF7C7FF10B185F3118870BDA36A3A
:103770001E70A36AE26A01339342A36204D3E16933
:1037800020460439FFF7D0FF002080F31188EDE7D1
:103790002DE9F84F04460D4691469A464FF0200811
:1037A00088F311880026B346A76A4FB951462046D0
:1037B000FFF7A0FF20B187F311883046BDE8F88FEE
:1037C000D4E90A07A9EB06033F1A9F4228BF1F4608
:1037D000402F1BD905F1400355F8042B9D4240F8BA
:1037E000042BF9D1A36A40364033A362D4E90A23FB
:1037F0009A4204D3E16920460439FFF795FF8BF321
:1038000011884E45D9D288F31188CDE729463A462A
:10381000FDF7DCFBA36A3D443E443B44A362E5E77D
:10382000D0E904239A4217D1C3689BB1836A8BB154
:10383000043B9B1A0ED01360C368013BC360C3698D
:103840001A4483699A42026124BF436A03610023D8
:1038500083620123184670470023FBE700F050B94C
:10386000034B002258631A610222DA60704700BFDE
:10387000000C0040014B0022DA607047000C004051
:10388000014B5863704700BF000C0040FEE700008A
:1038900010B5194CFEF7BEFBFEF7E0FC802217497D
:1038A0002046FEF767FC012344F8180C0374144B00
:1038B000144AD96821F4E0610904090C0A43124949
:1038C000DA60CA6842F08072CA60104A1049C2F8D1
:1038D000B01F116841F0010111601022DA77202237
:1038E00083F82220002383F3118862B60948BDE8DB
:1038F0001040FEF75FBC00BFD42E0020A842000895
:1039000000ED00E00003FA05F0ED00E0001000E03B
:1039100055CEACC5B04200082DE9F84F1E4C4FF013
:103920000008DFF87890656904F11407D9F82430AD
:10393000266AAA689E1B96421CD34FF0200AAA68EA
:10394000236AD5F80CB0B61A134423622B68BB4225
:103950005F606361C5F80C8001D1FFF78BFF88F3CE
:1039600011882869D8478AF311886569AB689E4237
:10397000E5D2DBE76269BA420CD0916823628E1B04
:103980009660A86802282CBF1818981CBDE8F84F4C
:10399000FFF776BFBDE8F88FAC2E0020000C00408A
:1039A000034B59685A68521A9042FBD8704700BFBF
:1039B000001000E04B6843608B688360CB68C36095
:1039C0000B6943614B6903628B6943620B68036057
:1039D0007047000008B52C4B40F2FF712B48D3F81C
:1039E00088200A43C3F88820D3F8882022F4FF6295
:1039F00022F00702C3F88820D3F88820D3F8E0200B
:103A00000A43C3F8E020D3F808210A43C3F8082189
:103A10001F4AD3F808311146FFF7CCFF1D4802F1C9
:103A20001C01FFF7C7FF1C4802F13801FFF7C2FF76
:103A30001A4802F15401FFF7BDFF194802F1700165
:103A4000FFF7B8FF174802F18C01FFF7B3FF1648E4
:103A500002F1A801FFF7AEFF144802F1C401FFF71D
:103A6000A9FF134802F1E001FFF7A4FF114802F19A
:103A7000FC01FFF79FFF104802F58C71FFF79AFFDA
:103A8000BDE8084000F016B9004402580000025892
:103A9000D04200080004025800080258000C0258E6
:103AA000001002580014025800180258001C025856
:103AB00000200258002402580028025808B500F0DF
:103AC000C9FAFFF7E5FEFEF71FFFBDE80840FEF765
:103AD000CFBC000070470000084B1A69920710B570
:103AE00008D500241C61202383F31188FFF714FFFD
:103AF00084F31188BDE81040FEF728BF000C004099
:103B0000124B08213220D3F8E82042F00802C3F813
:103B1000E820D3F8102142F00802C3F810210C4A23
:103B2000D3F81031D36B43F00803D363C722094B9A
:103B30009A624FF0FF32DA6200229A615A63DA60C9
:103B40005A6001225A611A60FDF73CBC00440258D9
:103B50000010005C000C0040F8B5514B0024D3F875
:103B600080204FF0FF32C3F88020D3F88010C3F8D4
:103B70008040D3F88010D3F88410C3F88420D3F8A1
:103B80008410C3F88440D3F88410D96F41F0FF410A
:103B900041F4FF0141F4DF4141F07F01D967D96F62
:103BA00021F0FF4121F4FF0121F4DF4121F07F01E9
:103BB000D967D96FD3F888106FEA41516FEA515134
:103BC000C3F88810D3F88810C1F30A01C3F888102D
:103BD000D3F88810D3F89010C3F89020D3F8901041
:103BE000C3F89040D3F89010D3F89410C3F8942001
:103BF000D3F89410C3F89440D3F89410D3F89810E5
:103C0000C3F89820D3F89810C3F89840D3F89810C8
:103C1000D3F88C10C3F88C20D3F88C10C3F88C40E8
:103C2000D3F88C10D3F89C10C3F89C20D3F89C20B8
:103C3000C3F89C40D3F89C3000F0ECF9194B0722F4
:103C40009A60194ADA60194A1A6105225A60184ABC
:103C5000536A43F480335362C2F88440BFF34F8FFA
:103C6000D2F8803043F6E076C3F3C904C3F34E3391
:103C7000A5075B0103EA060C284621464CEA00072B
:103C8000013900F14040C2F874724F1CF6D1203B5C
:103C900013F1200FEED1BFF34F8FBFF36F8FF8BD3D
:103CA0000044025890ED00E0000004301B000803BF
:103CB00000ED00E001225B4B5B491A605B4B196031
:103CC0009A605B4ADA6000221A614FF440429A61BE
:103CD0009A699204FCD51A6842F480721A60554BB6
:103CE0001A6F12F4407F04D04FF480321A6700221A
:103CF0001A671A6842F001021A604E4A13461168A8
:103D00004807FCD5002111611A6912F03802FBD175
:103D1000012119604FF0804159605A67464ADA62C2
:103D2000464A1A611A6842F480321A60414A1346C0
:103D300011688903FCD5116841F0800111601A688F
:103D4000D205FCD53E4A3F499A6200225A63196364
:103D5000A1F58021DA634B3999635A643A4A1A64AF
:103D60003A4ADA621A6842F0A8521A60314B1A686D
:103D700002F02852B2F1285FF9D1482222219A613B
:103D80004FF48862DA6140221A624FF00052DA641E
:103D90001A652F4A5A652F4A9A652F4A11601A6987
:103DA00042F003021A61234B1A6902F03802182A02
:103DB000FAD1D3F8DC2042F00052C3F8DC20D3F86B
:103DC000042142F00052C3F80421D3F80421D3F8AF
:103DD000DC2042F08042C3F8DC20D3F8042142F01A
:103DE0008042C3F80421D3F80421D3F8DC2042F048
:103DF0000042C3F8DC20D3F8042142F00042C3F8AB
:103E00000421D3F80421D3F8F42042F00202C3F8CD
:103E1000F420D3F81C2142F00202C3F81C21D3F88D
:103E20001C3170470881005100C000F00048025862
:103E300002000001004402580000FF0100889008C1
:103E4000222040006302070147040508FD0BFF0123
:103E50000010E0000001010000200052084A08B5EF
:103E6000916813680B4003F00103936023B1054A86
:103E700013680BB150689847BDE80840FEF766BD6F
:103E800080000058C0290020084A08B591681368CE
:103E90000B4003F00203936023B1054A93680BB112
:103EA000D0689847BDE80840FEF750BD8000005834
:103EB000C0290020084A08B5916813680B4003F038
:103EC0000403936023B1054A13690BB15069984705
:103ED000BDE80840FEF73ABD80000058C029002028
:103EE000084A08B5916813680B4003F00803936013
:103EF00023B1054A93690BB1D0699847BDE80840E2
:103F0000FEF724BD80000058C0290020084A08B5EB
:103F1000916813680B4003F01003936023B1054AC6
:103F2000136A0BB1506A9847BDE80840FEF70EBD12
:103F300080000058C0290020174B10B59A681C68F3
:103F4000144004F478729A60A30604D5134A936A65
:103F50000BB1D06A9847600604D5104A136B0BB1B9
:103F6000506B9847210604D50C4A936B0BB1D06B6C
:103F70009847E20504D5094A136C0BB1506C984779
:103F8000A30504D5054A936C0BB1D06C9847BDE8E6
:103F90001040FEF7DBBC00BF80000058C0290020A5
:103FA0001A4B10B59A681C68144004F47C429A605D
:103FB000620504D5164A136D0BB1506D9847230561
:103FC00004D5134A936D0BB1D06D9847E00404D526
:103FD0000F4A136E0BB1506E9847A10404D50C4ADA
:103FE000936E0BB1D06E9847620404D5084A136FE4
:103FF0000BB1506F9847230404D5054A936F0BB15A
:10400000D06F9847BDE81040FEF7A0BC8000005874
:10401000C0290020062108B50846FDF7D3F906217E
:104020000720FDF7CFF906210820FDF7CBF906217F
:104030000920FDF7C7F906210A20FDF7C3F906217B
:104040001720FDF7BFF906212820BDE80840FDF73D
:10405000B9B9000008B5FFF77FFDFDF78BF8FDF754
:104060005BFBFDF72DFDFDF705FCFFF733FDBDE81C
:104070000840FFF7F3BB000030B50024A24201D195
:10408000002007E0035D01340D1915F8015CAB4217
:10409000F4D0581B30BD0000034611F8012B03F883
:1040A000012B002AF9D170471210121312110000CF
:1040B00001105A0003105900012058000320560037
:1040C000EC2E0020402A002053544D333248373F15
:1040D0003F3F0053544D3332483734332F37353355
:1040E000000000000096000000000000000000003A
:1040F00000000000000000000000000000000000C0
:10410000E1160008CD16000809170008F51600088A
:1041100001170008ED160008D9160008C51600089A
:104120001517000800000000ED170008D917000857
:1041300015180008011800080D180008F9170008E4
:10414000E5170008D11700087118000800000000EA
:10415000010000000000000002000000000000005C
:104160000D1A0008791A000840004000843300202E
:104170009433002002000000000000000300000053
:1041800000000000BD1A0008000000001000000040
:10419000A433002000000000010000000000000027
:1041A00014360020010102004172647550696C6F81
:1041B000740025424F415244252D424C0025534561
:1041C0005249414C250000001124000879230008C1
:1041D00085190008F523000843000000E0410008AD
:1041E00009024300020100C032090400000102027A
:1041F000010005240010010524010001042402022D
:104200000524060001070582030800FF09040100D8
:10421000020A0000000705010240000007058102B4
:1042200040000000120000002C42000812011001A2
:104230000200004009124157000201020301000080
:104240000403090425424F4152442500436F64652D
:10425000764470313030302D7632003031323334A4
:1042600035363738394142434445460000000000A6
:10427000211C0008F51E0008A11F00084000400096
:104280004C3700204C370020010000005C37002034
:104290008000000040010000080000000001000054
:1042A00000040000080000006D61696E000000005D
:1042B000C842000868370020603900200100000073
:1042C0008D3800080000000069646C650000000083
:1042D0000000806A00000000AAAAAA2A000000408C
:1042E000FFFF00000000000000A00A000100000025
:1042F00000000000AAAAAAAA00000000FFFF000018
:1043000000000000000000000000000000000000AD
:10431000AAAAAAAA00000000FFFF000000000000F7
:10432000000000000028000000000000AAAAAAAABD
:1043300000140000FFFF00000000700700000000F4
:104340000000440400000000AAAAAAAA0000400439
:10435000FFFF00000000000000000000000000005F
:1043600000000000AAAAAAAA00000000FFFF0000A7
:10437000000000000000000000000000000000003D
:10438000AAAAAAAA00000000FFFF00000000000087
:10439000000000000000000000000000AAAAAAAA75
:1043A00000000000FFFF000000000000000000000F
:1043B0000000000000000000AAAAAAAA0000000055
:1043C000FFFF0000000000000000000000000000EF
:1043D00000000000AAAAAAAA00000000FFFF000037
:1043E00000000000000000000000000000000000CD
:1043F000AAAAAAAA00000000FFFF00000000000017
:104400000000000000000000FF00000000000000AD
:10441000C84000083F00000050040000D3400008DE
:104420003F000000009600000000080004000000AB
:1044300040420008000000000000000000000000F2
:0C44400000000000000000000000000070
:00000001FF
